:020000040800F2
:10000000F0040020D5000008150C0008310B000892
:1000100000000000000000000000000000000000E0
:10002000000000000000000000000000CD0D0008EE
:1000300000000000000000005D0C0008CF0D00086B
:100040000501000800000000050100080501000886
:100050000501000805010008050100080501000868
:100060000000000005010008050100080501000866
:100070000501000805010008050100080000000056
:100080000501000800000000000000000501000854
:100090000000000005010008050100080501000836
:1000A0000000000005010008000000000501000834
:1000B0000501000800000000000000000501000824
:1000C0000348854600F05AF800480047A50E00088E
:1000D000F00400200C4880F308880C480168090EE1
:1000E0000B4A914205D10B480B4901600B480C4962
:1000F00001600C4880470C480047FEE7FEE7FEE73A
:10010000FEE7FEE7FEE70000F00400200400000028
:100110001F00000018100240010000000000014014
:1001200000000000210E0008C100000830B50B4699
:10013000014600202022012409E00D46D5409D42C1
:1001400005D31D469540491B254695404019154647
:10015000521E002DF1DC30BDD2B201E00270401C15
:10016000491EFBD270470022F6E710B513460A4637
:1001700004461946FFF7F0FF204610BD064C012546
:10018000064E05E0E36807CC2B430C3C984710343F
:10019000B442F7D3FFF798FFF00E0008100F0008E5
:1001A000F8B500238DE001249C40A44622407DD078
:1001B0004C68022C01D0122C0CD1DC08A4002718AA
:1001C0003C6A5D07ED0E0F26AE40B4430E69AE40AB
:1001D00026433E6205685E000324B4400F79A543C0
:1001E000BF07BF0FB7402F4307604D68012D05D0F3
:1001F000022D03D0112D01D0122D0ED18568CF68AC
:10020000A543B7402F43876047686546AF430D79E4
:10021000ED06ED0F9D403D434560C568A5438C68E4
:10022000B4402C43C4604C68E40049D5284CA5690F
:1002300001263543A561A4699D0834400094254CEE
:10024000AD002F19BC689D072E0F0F25B540AC439C
:100250000925ED06A84201D100250FE01E4DA84258
:1002600001D101250AE01D4DA84201D1022505E07A
:100270001B4DA84201D1032500E00525B5402543CB
:10028000BD60184C25684E689543F60300D51543AC
:10029000256065684E689543B60300D515436560D3
:1002A000A5684E689543F60202D500E008E01543C4
:1002B000A560E5684E689543B60200D51543E56034
:1002C0005B1C0A681446DC4000D06CE7F8BD0000F7
:1002D00000100240000001400004004800080048EF
:1002E000000C00480004014001480068704700000D
:1002F0008000002002480168491C0160704700002E
:100300008000002010B506480168102211430160EA
:10031000002000F007F800F017F8002010BD0000E2
:100320000020024010B5044600F0BCF87D21C90051
:10033000FFF7FCFE00F0E4FB00222146501E00F017
:1003400017F8002010BD000008B508488169012297
:1003500011438161816911400091C26901040A431E
:10036000C261C0690840009008BD00000010024052
:1003700010B500F051FC10BDF8B5054644480E46D6
:100380000068C007C00FB0420AD24148016849085E
:100390004900314301600068C007C00FB0425CD122
:1003A00028783C4C800705D56068F0218843A9680F
:1003B000084360602878C0073FD06868012813D0E0
:1003C0002168022813D08907002946DA6168890864
:1003D000890001436160FFF787FF696807460129CB
:1003E0000DD0022917D024E021688903ECE78901A8
:1003F000EAE7FFF779FFC11B2748814217D86068F9
:100400000007800F0128F4D117E0FFF76DFFC11B33
:10041000214881420BD860680007800F0228F4D180
:100420000BE0FFF761FFC11B1B48814201D903208C
:10043000F8BD60680007800FF3D115480168C9074F
:10044000C90FB1420BD90168490849003143016025
:100450000068C007C00FB04201D00120F8BD287865
:10046000400706D56068072109028843E968084308
:10047000606000F01DF86168084A0906090F515CC8
:10048000C840074908600020FFF74CFF0020F8BD76
:10049000002002400010024088130000E00E000817
:1004A000840000200148006870470000840000209C
:1004B00010B511A30FCB88B06C460FC412A30FCB9D
:1004C0000FC415494A680C20134603401348042BF7
:1004D0000FD0082B0DD193021B0F6C46E45CC96A48
:1004E00004AB0907090FD203595C920FFFF71EFEF8
:1004F000604308B010BD00000203040506070809A8
:100500000A0B0C0D0E0F101001020304050607085C
:10051000090A0B0C0D0E0F100010024000127A0099
:10052000FEB504460078D24DC00749D06868000780
:10053000800F012820D068680007800F022804D1AE
:100540006868C003800F022816D00120626800048A
:10055000012A18D08100002A01D0052A17D02A6864
:1005600082432A60286888432860606800281BD07E
:10057000FFF7BAFE064613E02868800320D56068BE
:10058000002876D01CE0296801432960EDE72A683D
:100590000A432A60F7E7FFF7A7FE801B642869D8A3
:1005A00028688003F7D50BE0FFF79EFE064604E0BF
:1005B000FFF79AFE801B6428F1D828688003F7D4DF
:1005C00020780126800700283DDA68680007800F40
:1005D00013D068680007800F022804D16868C00340
:1005E000800F012809D0E068002828681CD030431B
:1005F0002860FFF779FE07460BE0286880070BD5D7
:10060000E068012835D107E0FFF76EFEC01B022825
:10061000C5D828688007F7D52868F821884321695C
:10062000C900084328600EE0400840002860FFF73A
:100630005BFE074604E0FFF757FEC01B0228AED85A
:1006400028688007F7D42078000723D5E0690028C0
:10065000686A10D030436862FFF746FE074604E040
:10066000FFF742FEC01B022899D8686A8007F7D5B9
:1006700010E0FAE0A4E0400840006862FFF734FEB2
:10068000074604E0FFF730FEC01B022887D8686ADF
:100690008007F7D4207804274007002860DA00207C
:1006A0000190E869C00008D4E969B8060143E9612E
:1006B000E96901400120009101906E480168C90577
:1006C00011D40168821511430160FFF70DFE0090FF
:1006D00005E0FFF709FE0099401A642870D86548C4
:1006E0000068C005F5D5A06801280AD0002801D00F
:1006F000052810D0286A400840002862286AB843BC
:1007000001E0286A30432862A068002812D0FFF771
:10071000EBFD00900AE0286A38432862F1E7FFF712
:10072000E3FD0099411A5448814249D8286A80075C
:10073000F5D50DE0FFF7D8FD009006E0FFF7D4FDFA
:100740000099411A4C4881423AD8286A8007F5D46A
:100750000198002804D0E969012000078143E9617C
:100760002078C00635D5606901280CD0401D686B23
:1007700023D038436863686B400840006863FFF724
:10078000B3FD064622E0686B38436863686B30430C
:100790006863FFF7A9FD064604E0FFF7A5FD801B8F
:1007A00002285BD8686B8007F7D5686BF82188430F
:1007B000A169C900084368630BE0B8436863F4E7C4
:1007C0004CE0FFF791FD801B022847D8686B80073B
:1007D000F7D4206A002846D069680907890F0229E2
:1007E00043D0012636060228286805D0B043286089
:1007F000FFF77AFD044633E0B0432860FFF774FD4D
:10080000074604E0FFF770FDC01B022826D82868C1
:100810008001F7D4E86AE16A000900010843E86250
:10082000616AA06A084369687B22D2039143084346
:100830006860286830432860FFF756FD044604E0EE
:10084000FFF752FD001B022808D828688001F7D561
:1008500009E0FFF749FD001B022801D90320FEBD76
:1008600028688001F5D40020FEBD0120FEBD0000F7
:10087000001002400070004088130000F8B504002A
:1008800007D0002625464035A662687F002802D0A2
:1008900005E00120F8BD2E77204600F04BF802233A
:1008A0006B77206801684022914301600721E0686E
:1008B0000902884201D9002201E0012212030F2718
:1008C0003F02B84202D0884200D0A662276B002FB8
:1008D00005D1884201D9236301E001202063A1688A
:1008E0006068636908432169194308430123A169CA
:1008F0005B0219400843E1690843216A0843A16A81
:10090000084321680860616B606AA36908431B0C97
:100910000427E1683B4019430843216810434860BD
:100920002068C1697A029143C16126660120687717
:100930000020F8BD10B586B0044614216846FFF7C4
:1009400012FC1149206888421CD110488269811428
:100950000A43826182690A400592426949010A4359
:100960004261406908400590A0200090022001905B
:100970000021032003900291049109206946C006DA
:10098000FFF70EFC06B010BD003001400010024021
:10099000FFB5064604464036307F002781B00D463D
:1009A000012809D001203077FFF79EFC0090707F6E
:1009B000012804D002279DE0022005B0F0BD002DE3
:1009C00072D0039800286FD0032070770020206633
:1009D000A5630399A1870399E1872064B080F08023
:1009E0002065E0640121A068C903884205D1206820
:1009F00001680122920311430160206801684906E1
:100A000003D401684022114301600720E16800021D
:100A10008142606823D9002802D0E08F01281AD1D2
:100A200021682888C86005E020688168890706D5A4
:100A30002988C160E08F401EE087AD1C0BE0049860
:100A400000283ED0401C06D0FFF74EFC0099411A0A
:100A50000498814235D2E08F0028E5D136E00028A5
:100A600002D0E08F01282ED1E08F012803D9216820
:100A70002888C8600CE02168287808730FE0206897
:100A80008168890711D5E18F012906D92988C160BC
:100A9000E08F801EE087AD1C15E029780173E08FA0
:100AA000401EE0876D1C0EE023E00498002808D06B
:100AB000401C08D0FFF718FC0099411A04988142A5
:100AC00001D3032716E0E08F0028D8D12046009AF2
:100AD000049900F0C4F8002801D020202066A06806
:100AE000002803D12068C16880680090206E00282B
:100AF00000D00127012070770020307738465CE76E
:100B0000094910B5401E884201D9012010BD074C8B
:100B100060610321081F00F07FF80020A06107201A
:100B20002061002010BD0000FFFFFF0000E000E09A
:100B3000FEE7F8B507273F037F26360205468024E7
:100B4000254201D0304600E0384600F035F8641008
:100B5000012CF5DAF8BD70B5010ACC08C108FC22F9
:100B6000C0061140050EE4000846FFF7E2FF2046EC
:100B7000FFF7DFFF2846FFF7DCFF70BD0D46064696
:100B8000002405E06000305AFFF7E5FF641CE4B282
:100B9000AC42F7D3402D0AD24020401BC4B204E03F
:100BA0000020FFF7D8FF641CE4B2AC42F8D3FF206A
:100BB00000F002F8FBE7000001B57D23DB00022214
:100BC00069460248FFF7E4FE08BD000088000020E7
:100BD00010B50F480D490160FF210531416000212A
:100BE0000F22816012020161C26001224161520242
:100BF0008261016210224162C26181620722C26287
:100C0000016308214163FFF739FE10BD0030014048
:100C100088000020704700008307FF22DB0E9A4007
:100C20008907090E994000280BDA0007000F0838E1
:100C3000830808489B001818C36993430B43C3619A
:100C40007047830804489B001B18186890430843AA
:100C50001860704700ED00E000E400E07047F8B570
:100C60000F460B4615460092032104460022C90296
:100C700000F01BF82026002812D13B4600228021DC
:100C80002046009500F05CF8002809D103213B467E
:100C9000002249022046009500F007F8002803D002
:100CA000206E304320660320F8BDF8B51D46174678
:100CB0000E4604463DE0032149028E4205D1002F35
:100CC00003D1017B684601700078681C31D0002D8B
:100CD00005D0FFF709FB0699401AA84229D32068DE
:100CE0004168E022914341606068C11FFD390CD129
:100CF0000121A068C903884202D04911884204D169
:100D0000206801684022914301600120A16A4003EC
:100D1000814207D121680A6882430A6021680A6813
:100D200002430A60012040346077002020770320CE
:100D3000F8BD206881683140B942BCD10020F8BDBF
:100D4000F8B51D4617460E46044633E0681C31D000
:100D5000002D05D0FFF7C8FA0699401AA84229D3FA
:100D600020684168E022914341606068C11FFD39FD
:100D70000CD10121A068C903884202D049118842E0
:100D800004D1206801684022914301600120A16ADA
:100D90004003814207D121680A6882430A602168C2
:100DA0000A6802430A6001204034607700202077FF
:100DB0000320F8BD206881683046884304D00020B5
:100DC000B842C3D10020F8BD0120F9E7704710B543
:100DD000FFF790FA10BD30B591B030216846FFF7AB
:100DE000C2F900240D94012003900E9410200225D6
:100DF0000490C002009509900F9440010A900C9451
:100E000008950B946846FFF78BFB07200C900E9417
:100E100001210D950F940CA8FFF7AEFA11B030BD6B
:100E2000154801680122114301604168134A1140CD
:100E300041600168124A1140016001680122920478
:100E40009143016041683F22120491434160C16AAD
:100E500009090901C162016BFF22943291430163C8
:100E6000016B802211430163416B490849004163D2
:100E70000021816070470000001002400CB8FF089C
:100E8000FFFFF6FE02E008C8121F08C1002AFAD1CF
:100E900070477047002001E001C1121F002AFBD1FA
:100EA0007047000008B5FFF72DFAFFF794FF0A48D6
:100EB0004269012149040A434261406908400090A7
:100EC000FFF786FE80210548FFF74DF940210348D2
:100ED000FFF754FEF6E7000000100240000000207B
:100EE00000000000000000000102030406070809DA
:100EF000100F00080000002088000000840E000889
:100F0000980F00088800002068040000940E000874
:100F1000FF000000000000000000000000000000D2
:100F200000000000000000000000000000000000C1
:100F300000000000000000000000000000000000B1
:100F400000000000000000000000000000000000A1
:100F50000000000000000000000000000000000091
:100F60000000000000000000000000000000000081
:100F70000000000000000000000000000000000071
:100F80000000000000000000000000000000000061
:080F90000000000000127A00CD
:04000005080000C12E
:00000001FF
